{
  "contractName": "AuditContract",
  "abi": [
    {
      "anonymous": false,
      "inputs": [
        {
          "indexed": false,
          "internalType": "uint256",
          "name": "recordId",
          "type": "uint256"
        },
        {
          "indexed": false,
          "internalType": "string",
          "name": "codeHash",
          "type": "string"
        },
        {
          "indexed": false,
          "internalType": "address",
          "name": "auditor",
          "type": "address"
        },
        {
          "indexed": false,
          "internalType": "uint256",
          "name": "timestamp",
          "type": "uint256"
        }
      ],
      "name": "AuditRecorded",
      "type": "event"
    },
    {
      "inputs": [],
      "name": "auditFee",
      "outputs": [
        {
          "internalType": "uint256",
          "name": "",
          "type": "uint256"
        }
      ],
      "stateMutability": "view",
      "type": "function",
      "constant": true
    },
    {
      "inputs": [
        {
          "internalType": "uint256",
          "name": "",
          "type": "uint256"
        }
      ],
      "name": "auditRecords",
      "outputs": [
        {
          "internalType": "string",
          "name": "codeHash",
          "type": "string"
        },
        {
          "internalType": "address",
          "name": "auditor",
          "type": "address"
        },
        {
          "internalType": "uint256",
          "name": "timestamp",
          "type": "uint256"
        }
      ],
      "stateMutability": "view",
      "type": "function",
      "constant": true
    },
    {
      "inputs": [],
      "name": "recordCount",
      "outputs": [
        {
          "internalType": "uint256",
          "name": "",
          "type": "uint256"
        }
      ],
      "stateMutability": "view",
      "type": "function",
      "constant": true
    },
    {
      "inputs": [
        {
          "internalType": "string",
          "name": "_codeHash",
          "type": "string"
        }
      ],
      "name": "uploadAuditRecord",
      "outputs": [],
      "stateMutability": "payable",
      "type": "function",
      "payable": true
    },
    {
      "inputs": [
        {
          "internalType": "uint256",
          "name": "_newFee",
          "type": "uint256"
        }
      ],
      "name": "setAuditFee",
      "outputs": [],
      "stateMutability": "nonpayable",
      "type": "function"
    }
  ],
  "bytecode": "0x6080604052662386f26fc1000060025534801561001b57600080fd5b5061059c8061002b6000396000f3fe60806040526004361061004a5760003560e01c80630aca2ac61461004f5780633d6dfe731461006457806362ac543e1461008f578063900407bc146100af578063e74e786d146100c4575b600080fd5b61006261005d36600461034e565b6100f3565b005b34801561007057600080fd5b506100796101f0565b60405161008691906104b0565b60405180910390f35b34801561009b57600080fd5b506100626100aa3660046103ef565b6101f6565b3480156100bb57600080fd5b506100796101fb565b3480156100d057600080fd5b506100e46100df3660046103ef565b610201565b60405161008693929190610452565b60025434101561011e5760405162461bcd60e51b815260040161011590610480565b60405180910390fd5b6001805490600061012e83610529565b909155505060408051606081018252828152336020808301919091524282840152600154600090815280825292909220815180519293919261017392849201906102b5565b5060208201518160010160006101000a8154816001600160a01b0302191690836001600160a01b03160217905550604082015181600201559050507feafa5c7a74222a40a521f8cadd6f4fddc48df5a8acf6a35f5be8ae2b206764546001548233426040516101e594939291906104b9565b60405180910390a150565b60025481565b600255565b60015481565b60006020819052908152604090208054819061021c906104ee565b80601f0160208091040260200160405190810160405280929190818152602001828054610248906104ee565b80156102955780601f1061026a57610100808354040283529160200191610295565b820191906000526020600020905b81548152906001019060200180831161027857829003601f168201915b50505050600183015460029093015491926001600160a01b031691905083565b8280546102c1906104ee565b90600052602060002090601f0160209004810192826102e35760008555610329565b82601f106102fc57805160ff1916838001178555610329565b82800160010185558215610329579182015b8281111561032957825182559160200191906001019061030e565b50610335929150610339565b5090565b5b80821115610335576000815560010161033a565b60006020808385031215610360578182fd5b823567ffffffffffffffff80821115610377578384fd5b818501915085601f83011261038a578384fd5b81358181111561039c5761039c610550565b604051601f8201601f19168101850183811182821017156103bf576103bf610550565b60405281815283820185018810156103d5578586fd5b818585018683013790810190930193909352509392505050565b600060208284031215610400578081fd5b5035919050565b60008151808452815b8181101561042c57602081850181015186830182015201610410565b8181111561043d5782602083870101525b50601f01601f19169290920160200192915050565b6000606082526104656060830186610407565b6001600160a01b039490941660208301525060400152919050565b602080825260169082015275496e73756666696369656e742061756469742066656560501b604082015260600190565b90815260200190565b6000858252608060208301526104d26080830186610407565b6001600160a01b03949094166040830152506060015292915050565b60028104600182168061050257607f821691505b6020821081141561052357634e487b7160e01b600052602260045260246000fd5b50919050565b600060001982141561054957634e487b7160e01b81526011600452602481fd5b5060010190565b634e487b7160e01b600052604160045260246000fdfea2646970667358221220391a3e98ae97851b93df4cd71432188cc25250ff44af4fc5edb6d66d545cfba764736f6c63430008000033",
  "immutableReferences": {},
  "source": "// SPDX-License-Identifier: MIT\r\npragma solidity ^0.8.0;\r\n\r\ncontract AuditContract {\r\n    struct AuditRecord {\r\n        string codeHash;\r\n        address auditor;\r\n        uint256 timestamp;\r\n    }\r\n\r\n    mapping(uint256 => AuditRecord) public auditRecords;\r\n    uint256 public recordCount;\r\n    uint256 public auditFee = 0.01 ether;\r\n\r\n    event AuditRecorded(uint256 recordId, string codeHash, address auditor, uint256 timestamp);\r\n\r\n    function uploadAuditRecord(string memory _codeHash) public payable {\r\n        require(msg.value >= auditFee, \"Insufficient audit fee\");\r\n\r\n        recordCount++;\r\n        auditRecords[recordCount] = AuditRecord(_codeHash, msg.sender, block.timestamp);\r\n\r\n        emit AuditRecorded(recordCount, _codeHash, msg.sender, block.timestamp);\r\n    }\r\n\r\n    function setAuditFee(uint256 _newFee) public {\r\n        auditFee = _newFee;\r\n    }\r\n}",
  "sourcePath": "D:\\Coding_project\\code_security_audit_v1\\contracts\\AuditContract.sol",
  "compiler": {
    "name": "solc",
    "version": "0.8.0+commit.c7dfd78e.Emscripten.clang"
  },
  "schemaVersion": "3.4.16",
  "updatedAt": "2024-06-26T08:08:44.300Z",
  "networkType": "ethereum",
  "devdoc": {
    "kind": "dev",
    "methods": {},
    "version": 1
  },
  "userdoc": {
    "kind": "user",
    "methods": {},
    "version": 1
  }
}